:020000040000FA
:10000000C81B0020D5000000D9000000DB00000064
:10001000DD000000DF000000E10000000000000043
:10002000000000000000000000000000E3000000ED
:10003000E500000000000000E7000000E90000000B
:10004000EB000000EB0000000000000011070000C2
:10005000EB000000EB000000EB000000EB000000F4
:1000600000000000EB000000EB000000EB000000CF
:10007000EB00000000000000EB000000EB000000BF
:10008000EB000000EB000000EB000000EB000000C4
:10009000EB0000008D070000EB000000EB0000000B
:1000A000EB00000000000000EB000000EB0000008F
:1000B000000000000000000000000000EB00000055
:1000C000DFF80CD013F0E6F900480047090F0000F4
:1000D000C81B002005480047FEE7FEE7FEE7FEE7F5
:1000E000FEE7FEE7FEE7FEE7FEE7FEE7C1000000F1
:1000F000F74900F400122AB1F64A526822F0004291
:10010000F44B5A6000F480122AB1F24A526822F08D
:100110000052F04B5A6000F400422AB1ED4A526896
:1001200022F04002EB4B5A6000F480722AB1E94A97
:10013000526822F02002E74B5A6000F001022AB117
:10014000E44A526822F00402E24B5A6000F4804212
:100150002AB1E04A526822F01002DE4B5A6000F4E5
:1001600000722AB1DB4A526822F00302D94B5A606E
:10017000D84A1268C3430B431A40D64B1A607047E3
:10018000D34900F400122AB1D24A526842F0004228
:10019000D04B5A6000F480122AB1CE4A526842F025
:1001A0000052CC4B5A6000F400422AB1C94A52684E
:1001B00042F04002C74B5A6000F480722AB1C54A2F
:1001C000526842F02002C34B5A6000F001022AB18B
:1001D000C04A526842F00402BE4B5A6000F48042AA
:1001E0002AB1BC4A526842F01002BA4B5A6000F47D
:1001F00000722AB1B74A526842F00302B54B5A6006
:10020000B44A126820EA01031A43B24B1A607047DD
:10021000F0B500240025002600220C281FD80C274A
:10022000B7FBF0FC00FB1C7707B1F0BDA94F7F685E
:10023000DFF8A4C207EA0C0747F08047DFF894C252
:10024000CCF804700C27B7FBF0F14F1E47F01007F5
:1002500047F4405747F08467CCF8087085E0502891
:100260002AD00CDC32281BD004DC1E2810D0302809
:1002700036D111E03C2817D0462831D118E05A2851
:100280001ED0642820D06E2822D0782828D123E0E0
:1002900028240225032624E040240225032620E00A
:1002A0003224032502261CE03C240325022618E004
:1002B00046240325022614E050240325022610E0DC
:1002C0005A24032502260CE032240325012608E0E7
:1002D00037240325012604E03C240325012600E001
:1002E000A3E700BF4FF480173F6827F4F85747F49F
:1002F00000674FF4801CCCF80070764F7F68DFF801
:10030000D8C107EA0C07DFF8CCC1CCF80470B704F9
:1003100047EA8537274347F0C057CCF80C7067464B
:10032000FF6827F00047CCF80C706746FF6847F479
:100330008007CCF80C7000BF664FFF6807F080475D
:10034000002FF9D0654FDFF88CC1CCF808706746F4
:100350007F68DFF884C107EA0C07DFF884C147EA49
:100360000C07DFF870C1CCF804705A4F7F68DFF8D3
:1003700074C107EA0C07A0F1010C47EA4C37DFF81B
:1003800054C1CCF80470584F4743DFF860C1CCF833
:100390000070504FBF6807F00F07791C67463F6831
:1003A0004F43DFF84CC1CCF800704A4FBF68C7F329
:1003B0000317791C4D4F3F68B7FBF1F7DFF834C1E5
:1003C000CCF80070494F3F68DFF81CC1B7FBFCF365
:1003D00034275F434FF47A7CB7FBFCF7FAB24FF453
:1003E00080173F6827F4F85747EA02274FF4801C2C
:1003F000CCF8007000BF18E72DE9F0410025002679
:10040000002700230C2825D84FF00C0CBCFBF0F87B
:1004100000FB18CCBCF1000F01D0BDE8F081DFF883
:10042000B4C0DCF804C0DFF8B0800CEA080CDFF8D8
:10043000A480C8F804C04FF0300CBCFBF0F2A2F16D
:10044000010C4CF0100C4CF4405C4CF0846CC8F87F
:1004500008C0A6E050282AD00CDC32281BD004DCCF
:100460001E2810D030284BD111E03C2817D0462848
:1004700046D118E05A281ED0642820D06E2822D0F9
:1004800078283DD138E028250226032739E0402589
:100490000226032735E032250326022731E03C25DA
:1004A000032602272DE046250326022729E05025B2
:1004B0000326022725E05A250326022721E03225BC
:1004C000032601271DE037250326012719E0000038
:1004D0000181300000000648FFE6FFBF1030200415
:1004E00000010040FF1F00E040420F0040000020DC
:1004F00044000020480000203C250326012700E09E
:100500008BE700BF4FF4801CDCF800C02CF4F85CD3
:100510004CF4006C4FF48018C8F800C0DFF8C4C178
:10052000DCF804C0DFF8C0810CEA080CDFF8B48105
:10053000C8F804C04FEA874C4CEA863C4CEA050CEC
:100540004CF0C05CC8F80CC0C446DCF80CC04CF0E1
:10055000004CC8F80CC0C446DCF80CC04CF4800C4D
:10056000C8F80CC000BFDFF87CC1DCF80CC00CF090
:10057000804CBCF1000FF6D0DFF870C1DFF8648169
:10058000C8F808C0C446DCF804C0DFF85C810CEA97
:10059000080CDFF85C814CEA080CDFF84881C8F8E9
:1005A00004C0DFF840C1DCF804C0DFF848810CEA81
:1005B000080CA0F101084CEA483CDFF82881C8F893
:1005C00004C04FF4002CDCF82C1240F6F63C6145D8
:1005D0000ED240F6BE2C61450AD94FF47A7C01FB5D
:1005E0000CFC0CFB00FC4FF00308BCFBF8F103E033
:1005F000DFF804C100FB0CF1DFF800C1CCF80010FB
:10060000DFF8E0C0DCF808C00CF00F0C0CF10102C0
:10061000DFF8E8C0DCF800C00CFB02FCDFF8E0808B
:10062000C8F800C0DFF8BCC0DCF808C0CCF3031C7D
:100630000CF10102DFF8C4C0DCF800C0BCFBF2FC26
:10064000DFF8C080C8F800C0DFF8B0C0DCF800C038
:10065000DFF8A480BCFBF8F44FF0340C04FB0CFC76
:100660004FF47A78BCFBF8FC0CF0FF034FF4801CCD
:10067000DCF800C02CF4F85C4CEA032C4FF4801832
:10068000C8F800C000BFC8E610B504462046FFF712
:10069000BFFD10BD03201C490860704700201A49A7
:1006A0000860704710B519480E490861084640694E
:1006B00040F0010048610A2000F0B5F90020094926
:1006C00008610846406920F0010048614FF0FF30A2
:1006D000FFF70EFD6E20FFF7D7FFFFF7DBFF10BD22
:1006E0007047000000000648FFE6FFBF10302004FE
:1006F00000010040FF1F00E040420F0040000020CA
:10070000440000204800002000D008407462966C2D
:1007100010B500219A4AD06B00F0100222B31CE001
:10072000974A1268974B984C24781A55964A127833
:10073000012A06D11A4652781B7803EB830302EB99
:100740004301914A12788A4202D101228F4B1A70DA
:100750008D4A1278521C8C4B1A70894A926902F0A9
:100760001002102ADCD110E000F020024AB1844AC5
:10077000926902F08002802A07D10122844B1A700C
:1007800003E040F6FF727E4B5A6410BD8149C86B8E
:1007900000F01001A9B10DE07E490968794A7A4B51
:1007A0001B78D15478490978491C774A1170012186
:1007B000764A11707749896901F010011029EBD14F
:1007C00010E000F0200149B17249896901F080010F
:1007D000802907D101216E4A117003E040F6FF71B4
:1007E0006C4A516470472DE9F04103461001B1FB9A
:1007F000F0F5B1FBF0F700FB1716F701B7FBF0F7C8
:10080000781C440805EB941703EB430CDFF8708168
:1008100008EB8C4CCCF8247004F03F0703EB430C3E
:1008200008EB8C4CCCF82870BDE8F08170B504461C
:100830000E467CB9584805685848C06A20F00F0039
:10084000401D5649C862032000F090F8032000F0D4
:1008500082F816E051488068C0F30360401C50499C
:100860000968B1FBF0F54D48406B20F4701040F47E
:10087000A0104A494863152000F078F8152000F0D0
:100880006AF80020424908704049087004EB4400AF
:100890003B4901EB8040006B20F0010004EB440178
:1008A000374A02EB81410863324629462046FFF76A
:1008B0009AFF602004EB4401314A02EB8141C86297
:1008C00040F2013004EB440102EB81410863102047
:1008D00004EB440102EB8141886340F6FF7004EBB6
:1008E000440102EB814148642E4801682EA012F0B9
:1008F0006FFE294802682A48016831A012F068FE9C
:1009000070BD00EB40021E4B03EB8242116000BF42
:1009100000EB40021A4B03EB8242926902F008029C
:10092000002AF5D17047F0B507460C46154600265B
:1009300005E014F8011B3846FFF7E3FF761CAE42D2
:10094000F7D3F0BD30B504460D46E1B20020FFF705
:10095000D8FF204630BD00F01F020121914042091E
:10096000920002F1E022C2F80011704700F01F026D
:10097000012191401A4A430942F8231070470000B0
:1009800000000148C00400204E0000204D0000205F
:100990004C00002000000D484800002000000648E0
:1009A000440000204000002041434835313220728D
:1009B000756E20617420256420487A0D0A000000BD
:1009C000535243436C6F636B3D20256420487A2C5F
:1009D0002050436C6F636B3D20256420487A0A00E9
:1009E00080E200E070B505460E46002404E0295D73
:1009F0001DA012F0EDFD641CB442F8D31CA012F04F
:100A0000E7FD70BD70B505460E46002405E055F8BB
:100A1000241018A012F0DCFD641CB442F7D314A01B
:100A200012F0D6FD70BD00BF011EA0F10100FBD188
:100A3000704701460A78CB780B70CA704A788B7879
:100A40004B708A70704730B502460B461046D51879
:100A5000691E05E004780D7800F8015B01F8014992
:100A60008142F7D830BD0000252E327820000000EA
:100A70000A000000252E38782000000001464800BA
:100A8000401C704701464808704710B511F023F824
:100A90002021B64811F0B2F818B1B5A012F098FDB7
:100AA00010BDBAA012F094FD002405E0AF48015D2E
:100AB000BDA012F08DFD641C202CF7D3BCA012F059
:100AC00087FD00BFECE72DE9FE4380460E46174642
:100AD00000200090019002900025B6A1404612F03F
:100AE00063FC044626E0B3A1002012F05DFC04463E
:100AF00004B30020009001900290204612F03EFCCA
:100B0000A0F101094A462146684612F02BFCAAA131
:100B1000204612F015FC38B1684612F067FC40F030
:100B2000004046F8250004E0684612F05FFC46F8F5
:100B300025006D1C002CD6D13D60BDE8FE8330B58C
:100B4000D7B00546202126A812F0EFFB0020259003
:100B5000402115A812F0E9FB502101A812F0E5FB95
:100B600096A012F035FD56A8402315AA002100904A
:100B70009748006810F03CFF402215A995A010F09E
:100B8000C8FD294695A012F023FD25AA26A92846CE
:100B9000FFF799FF2EA80023944A009015A85699B4
:100BA00001F011FD0446214691A012F011FD002C28
:100BB00076D1984812F00CFD21220DF1F70196A094
:100BC00010F0A7FD21220DF2371195A010F0A1FD24
:100BD00020222EA994A010F09CFD142247A994A0D5
:100BE00010F097FD944812F0F3FC4E2301AA002167
:100BF0002EA801F0BDFD4E2201A987A010F089FDAD
:100C00004E2301AA01212EA801F0B2FD4E2201A916
:100C100083A010F07EFD2598002841D0874800234E
:100C2000009026A92EA8259A01F0CBFF0446214664
:100C300083A012F0CDFC002C32D18C4812F0C8FCFD
:100C400021227E493F3174A010F063FD21227B49AF
:100C50007F3173A010F05DFD2122784972A010F061
:100C600058FD21227549643171A010F052FD72487F
:100C700012F0AEFC4E2301AA0021704801F078FD6D
:100C80004E2201A964A010F044FD4E2301AA0121C7
:100C90006A4801F06DFD4E2201A961A010F039FDF6
:100CA00057B030BD70B594B004460D4600264021C3
:100CB00004A812F03AFB6EA012F08AFC402004A9AE
:100CC00001222B46CDE900210290224620215B48DB
:100CD000403010F045FB6B4812F07AFCAAB2214676
:100CE00069A010F016FD402204A969A010F011FDC2
:100CF00014B070BD88B068A012F06AFC34E0694896
:100D00000078012830D1684A6648017867A012F05F
:100D10005FFC6FA1644812F013FB10B1FFF7B5FE42
:100D200019E06DA1604812F00BFB18B16CA0FFF741
:100D300006FF10E06EA15C4812F002FB58B168A0FB
:100D4000FFF7FDFE6A460A216BA000F0DFFD2021BF
:100D50006846FFF7A7FF00205249087069490870EC
:100D60002021514812F0E1FAC9E70000E004002018
:100D700072616E646F6D206E756D6265722069734D
:100D8000206572726F720D0A000000002D2D2D2D4E
:100D90002D2D2D2D2D68726E675F656E74726F70CC
:100DA00079203A2000000000253032780000000051
:100DB0000D0A00002F000000480000006465726901
:100DC000766564207374617274202121210D0A00FC
:100DD0005400002073656564000000006B65795F56
:100DE00070617468203D2025730D0A00E4AD88040D
:100DF00062697033325F6B65795F66726F6D5F73C6
:100E0000656564202D2D20726574203D2025640DBC
:100E10000A000000203F01007072766B65790000C7
:100E20007075626B657900006368636F64650000CC
:100E300068617331363000007C3E0100E00800201C
:100E400062697033325F6B65795F66726F6D5F7078
:100E50006172656E745F70617468202D2D207265FB
:100E600074203D2025640D0A000000002C3E010086
:100E70006B65797369676E207374617274202121C8
:100E8000210D0A00D03E01006D6573736167650036
:100E90007369676E65640000696E69745F626F6F85
:100EA000740D0A004D000020C004002072785F66B7
:100EB0006C6167203D2025642C20756172745F721F
:100EC000785F627566203D2025730D0A00000000E2
:100ED000656E74726F70790064657269766564001E
:100EE0006D2F3434482F30482F30482F3000000009
:100EF0006B65797369676E00313233343536373854
:100F0000393000004E000020FFF7CCFB4FF4E131F8
:100F10000020FFF78BFCFFF7EDFE00BFFEE70000AF
:100F20002DE9F04788B0044689461746402F02D184
:100F3000C84640251CE0402F08D91C2501AA394687
:100F4000484601F0AEF90DF1040801E0C8463D46FF
:100F5000C5F1400A04F5287148193622514612F0AD
:100F6000DDF904F5387148195C22514612F0D6F9C2
:100F700000260EE018F8060080F0360104F528700F
:100F8000815518F8060080F05C0104F53870815531
:100F9000761CAE42EEDB204601F072F9402204F5E9
:100FA0002871204601F02BF904F1A80001F068F93E
:100FB000402204F5387104F1A80001F020F9A822BC
:100FC000214604F5A87012F097F9A82204F1A801AF
:100FD00004F5FC7012F090F908B0BDE8F08710B588
:100FE0000446A82204F5A871204612F085F9A8222B
:100FF00004F5FC7104F1A80012F07EF910BD70B583
:1010000004460D46164632462946204601F0F7F8BA
:1010100070BD70B58EB004460D46164607A9204631
:1010200001F088F81C2207A904F1A80001F0E7F8F4
:10103000694604F1A80001F07DF832466946284669
:1010400012F05AF90EB070BD2DE9F043ADF5497DAF
:1010500004460D4616461F46DDF84493DDF84083EE
:101060002A46214601A8FFF75BFF3A46314601A810
:10107000FFF7C5FF4A46414601A8FFF7CAFF0DF535
:10108000497DBDE8F0832DE9F04788B004468946E4
:101090001746402F02D1C84640251BE0402F07D9F4
:1010A00020256A463946484600F030FCE84601E013
:1010B000C8463D46C5F1400A04F528714819362254
:1010C000514612F02BF904F5387148195C2251464B
:1010D00012F024F900260EE018F8060080F0360120
:1010E00004F52870815518F8060080F05C0104F5BD
:1010F00038708155761CAE42EEDB204600F0F5FBE1
:10110000402204F52871204600F0AEFB04F1A8004F
:1011100000F0EBFB402204F5387104F1A80000F068
:10112000A3FBA822214604F5A87012F0E5F8A82236
:1011300004F1A80104F5FC7012F0DEF808B0BDE877
:10114000F08710B50446A82204F5A871204612F0D5
:10115000D3F8A82204F5FC7104F1A80012F0CCF831
:1011600010BD70B504460D46164632462946204647
:1011700000F07AFB70BD70B590B004460D4616467F
:1011800008A9204600F00BFB202208A904F1A800C2
:1011900000F06AFB694604F1A80000F000FB32464B
:1011A0006946284612F0A8F810B070BD2DE9F0434A
:1011B000ADF5497D04460D4616461F46DDF84493BD
:1011C000DDF840832A46214601A8FFF75CFF3A4636
:1011D000314601A8FFF7C5FF4A46414601A8FFF77F
:1011E000CAFF0DF5497DBDE8F0832DE9F0478CB0CD
:1011F000044689461746802F02D1C84680251BE049
:10120000802F07D930256A463946484600F07FFFCF
:10121000E84601E0C8463D46C5F1800A04F5A461F0
:1012200048193622514612F079F804F5B46148198C
:101230005C22514612F072F800260EE018F8060003
:1012400080F0360104F5A460815518F8060080F09E
:101250005C0104F5B4608155761CAE42EEDB20469D
:1012600000F03FFF802204F5A461204600F0F8FE64
:1012700004F5A47000F035FF802204F5B46104F594
:10128000A47000F0EDFE4FF4A472214604F5247022
:1012900012F032F84FF4A47204F5A47104F57670DC
:1012A00012F02AF80CB0BDE8F08710B504464FF4F0
:1012B000A47204F52471204612F01EF84FF4A472B3
:1012C00004F5767104F5A47012F016F810BD70B52F
:1012D00004460D46164632462946204600F0C0FE1A
:1012E00070BD70B598B004460D4616460CA9204650
:1012F00000F022FE30220CA904F5A47000F0B0FE2C
:10130000694604F5A47000F017FE32466946284687
:1013100011F0F2FF18B070BD2DE9F043ADF2246D6D
:1013200004460D4616461F46DDF84496DDF8408615
:101330002A4621466846FFF758FF3A463146684636
:10134000FFF7C5FF4A4641466846FFF7CAFF0DF260
:10135000246DBDE8F0832DE9F04790B0044689463E
:101360001746802F02D1C84680251BE0802F07D961
:1013700040256A463946484600F0CBFDE84601E084
:10138000C8463D46C5F1800A04F5A46148193622D5
:10139000514611F0C3FF04F5B46148195C2251466F
:1013A00011F0BCFF00260EE018F8060080F03601B0
:1013B00004F5A460815518F8060080F05C0104F57E
:1013C000B4608155761CAE42EEDB204600F08BFD0A
:1013D000802204F5A461204600F044FD04F5A470C9
:1013E00000F081FD802204F5B46104F5A47000F0E2
:1013F00039FD4FF4A472214604F5247011F07CFFEE
:101400004FF4A47204F5A47104F5767011F074FF22
:1014100010B0BDE8F08710B504464FF4A47204F58F
:101420002471204611F068FF4FF4A47204F5767120
:1014300004F5A47011F060FF10BD70B504460D46B0
:10144000164632462946204600F00CFD70BD70B5A8
:10145000A0B004460D46164610A9204600F06EFCCA
:10146000402210A904F5A47000F0FCFC694604F5C4
:10147000A47000F063FC32466946284611F03CFF38
:1014800020B070BD2DE9F043ADF2246D04460D4649
:1014900016461F46DDF84496DDF840862A4621466A
:1014A0006846FFF758FF3A4631466846FFF7C5FFE2
:1014B0004A4641466846FFF7CAFF0DF2246DBDE873
:1014C000F083F0B5A1B006460F46154600200DF892
:1014D0001500002408E03A5D6946022303FB04106E
:1014E0000BA112F085F8641CAC42F4DB69460AA03B
:1014F00012F06EF831460CA012F06AF869463046D8
:1015000011F043FF10B10CA012F062F821B0F0BD51
:1015100025303278000000006F75747075743A20C1
:1015200025730D0A00000000766563746F723A201F
:1015300025730D0A0000000054657374206661690C
:101540006C65642E0D0A00002DE9F04FC8B003460B
:101550000D46164600241CE105EB8411002018E01E
:1015600001EB800C9CF803C001EB800898F8028026
:101570004CEA082C01EB800898F801804CEA084CF2
:1015800011F820804CEA086C0DF1200848F820C0C2
:10159000401C1028E4DB102059E0A0F1020C0DF1F2
:1015A000200858F82CC04FEA5C48A0F1020C0DF15D
:1015B000200959F82CC048EACC3CA0F1020859F89F
:1015C00028804FEAD849A0F102080DF1200A5AF804
:1015D000288049EA48388CEA080CA0F10208D14674
:1015E00059F828808CEA9828A0F1070C59F82CC0EB
:1015F000C444A0F10F0859F828804FEAD819A0F187
:101600000F081AF8288049EA4868A0F10F095AF82B
:1016100029904FEA994AA0F10F090DF1200B5BF8D0
:1016200029904AEA893988EA0908A0F10F09DA46BF
:101630005AF8299088EAD908E044A0F1100CD14664
:1016400059F82CC0C444C84648F820C0401C402863
:10165000A3DB002006E003F1880C5CF820C04DF805
:1016600020C0401C0828F6DB00207EE0DDF810C01A
:101670004FEA9C1CDDF810804CEA886C4FEAD828B1
:10168000DDF8109048EA49588CEA080C4FEA59688E
:1016900048EAC9188CEA080CDDF81C800CEB080934
:1016A000DDE904C80CEA080CDDF810A0DDF81880AC
:1016B00028EA0A088CEA080CCC44DFF8288658F897
:1016C0002080C4440DF1200858F820800CEB08025B
:1016D000DDF800C04FEA9C0CDDF800804CEA887C05
:1016E0004FEA5838DDF8009048EAC9488CEA080CFF
:1016F0004FEA995848EA89288CEA0808CC46DDF870
:1017000004900CEA090CDDF808A0DDF8009009EA65
:101710000A098CEA090CDDF8049009EA0A098CEA46
:10172000090C08EB0C07DDF818C0CDF81CC0DDF87B
:1017300014C0CDF818C0DDF810C0CDF814C0DDF825
:101740000CC09444CDF810C0DDF808C0CDF80CC032
:10175000DDF804C0CDF808C0DDF800C0CDF804C045
:1017600002EB070CCDF800C0401C4028FFF67EAF0E
:1017700000200BE003F1880C5CF820C05DF82080AD
:10178000E04403F1880C4CF82080401C0828F1DB71
:10179000641CB442FFF6E0AE48B0BDE8F08F2DE91E
:1017A000F04704460F46207900F03F00372801D962
:1017B000012000E0002000F10109D4E90001084403
:1017C0004FEAC0084FEA89166268B11A134604F15D
:1017D0000802981811F0A9FD802104F10800626840
:1017E0008154304400F8018C4FEA182104F10800BC
:1017F000304400F8021C4FEA184104F1080030445C
:1018000000F8031C4FEA186104F10800304400F8A6
:10181000041C4A4604F108012046FFF795FE002506
:101820001EE004F1880010F8250007EB8501C87060
:1018300004F1880030F82500000A07EB8501887064
:1018400004F1880050F82500000C07EB8501487072
:1018500004F1880050F82500000E07F825006D1CE3
:10186000082DDEDBBDE8F0872DE9F05F04468A46EF
:1018700015466068C0F1400B5D4501D2284600E086
:101880005846074604F10801626850183A46514626
:1018900011F032FD60682844402804D26068284472
:1018A0006060BDE8F09FA5EB07084FEA98160AEBC9
:1018B0000709012204F108012046FFF745FE3246E0
:1018C00049462046FFF740FE08F03F0709EB861126
:1018D0003A4604F1080011F00FFD6760701C2168A2
:1018E00001EB8010206000BFDBE70146002007E02D
:1018F000FD4A52F8203001F1880242F82030401CA5
:101900000828F5DB00224A600A60704770B5AAB06B
:1019100004460D4616466846FFF7E7FF2A4621466D
:101920006846FFF7A1FF31466846FFF738FF2AB047
:1019300070BD2DE9F74FADF5317D00260096F4E13D
:10194000009FB29E06EBC71100204CE001EBC006E1
:1019500096F807C04FF0000801EBC006B6794FEAD1
:10196000082747EA16674CEA062C48EA070701EB06
:10197000C00696F805800026360446EA18494CEA67
:10198000084647EA090C01EBC00797F804800027D6
:101990003F0647EA18274FEA0869E04646EA090C7D
:1019A00048EA070701EBC006F678374301EBC006AB
:1019B000B6784FEA0628664647EA080701EBC00CEE
:1019C0009CF801C04FEA0C48BC4637464CEA080672
:1019D00011F830C046EA0C660DF1440C0CEBC00C5B
:1019E000CCE90076401C1028B0DB10208EE0861E6B
:1019F00011AF07EBC607C0CFF60C46EA4736FF0C1F
:101A0000A0F1020C0DF1440858F83CC047EA4C37ED
:101A1000A0F1020C08EBCC0CDCF804C04FEA5C79B6
:101A2000A0F1020CC2460AEBCC0CDCE900AC4FEA98
:101A3000CC0C4CEA5A7B49EACA0C86EA0C0C87EAC1
:101A40000B06871E08EBC708D8E90078BF0947EAEC
:101A500088678CEA070C86EA9816C71F0DF14408C0
:101A600008EBC707D7E900871CEB080E46EB070811
:101A7000A0F10F0611AF07EBC606D6E9007676088F
:101A80004FEA3707A0F10F0C0DF1440919F83CC0DB
:101A900046EACC76A0F10F0C09EBCC09D9E900C9D4
:101AA0004FEA1C2C4CEA096C4FEA1929A0F10F0AE5
:101AB0000DF1440B1BF83AA049EA0A6987EA0C07C2
:101AC00086EA0906A0F10F0CD94609EBCC09D9E941
:101AD00000C94FEADC1C4CEA496C87EA0C0786EA2D
:101AE000D9161EEB070948EB0606A0F11007DC46E5
:101AF0000CEBC70CDCE9007C19EB070746EB0C0686
:101B0000DC460CEBC00CCCE90076401C5028FFF6FC
:101B10006EAF00200DE0B19E06F5847606EBC006A0
:101B2000D6E900760DF1040C0CEBC00CCCE9007684
:101B3000401C0828EFDB0020CEE0DDE90967B60B8A
:101B400046EA87464FEA973C099F4CEA874CBF0C10
:101B5000DDF8288047EA88374FEA984BDDF8248083
:101B60004FEA88394BEA090977408CEA0906DDF823
:101B700028C04FEA5C29C246DDF828804FEAC858E1
:101B800048EA5A2849EACA5987EA090786EA08064C
:101B9000DDE90F8C17EB080A46EB0C08DDE90B9C1E
:101BA000DDE9097607EA090706EA0C06DDE9099B83
:101BB0006FEA090C6FEA0B09DDE90DEB0CEA0E0C7C
:101BC00009EA0B0987EA0C0786EA09061AEB070CF3
:101BD00048EB0606454F07EBC007D7E900891CEB29
:101BE000080746EB09060DF1440C0CEBC008D8E9D8
:101BF00000C817EB0C0246EB0803DDE901763F0F46
:101C000047EA06174FEA167C019E4CEA061C029E24
:101C10004FEA9609DDE901A84FEA887848EA9A0870
:101C200049EA8A794646E04687EA090C88EA0608C6
:101C3000029E4FEAD619760646EADA1B49EA4A6658
:101C40008CEA060688EA0B07DDE902CADDF8049093
:101C500009EA0A09DDF810800CEA080CDDE905EB59
:101C6000DDE9018A08EA0E080AEA0B0A89EA08098E
:101C70008CEA0A0ADDE903C80CEA0E0C08EA0B0834
:101C800089EA0C098AEA080A16EB090447EB0A05F7
:101C9000DDE90D67CDE90F67DDE90B67CDE90D677C
:101CA000DDE90967CDE90B67DDE90776BF185E411D
:101CB000CDE90976DDE90567CDE90767DDE9036769
:101CC000CDE90567DDE90167CDE90367171943EB46
:101CD0000506CDE90176401C5028FFF62EAF002006
:101CE0001EE00000180100207800002018020020EB
:101CF000B19E06F5847606EBC006D6E9008701AEF4
:101D000006EBC00CDCE9006918EB060C47EB090791
:101D1000B19E06F5847606EBC006C6E900C7401CF6
:101D20000828E5DB009E761C0096B39F009EBE420D
:101D3000FFF606AE0DF5347DBDE8F08F2DE9F047D6
:101D400004460E46207900F07F006F2801D901205B
:101D500000E0002000F10109D4E9000108444FEA45
:101D6000C0084FEAC9176268B91A134604F108029D
:101D7000981811F0DAFA802104F1080062688154A1
:101D8000384400F8018C4FEA182104F10800384467
:101D900000F8021C4FEA184104F10800384400F82A
:101DA000031C4FEA186104F10800384400F8041CD1
:101DB0004A4604F108012046FFF7BBFD00254DE02F
:101DC00004F5847010F8350006EBC501C87104F500
:101DD000847000EBC50001880079020642EA1120F8
:101DE00006EBC501887104F5847000EBC50001683D
:101DF0000079020442EA114006EBC501487104F57E
:101E0000847000EBC50001680079020242EA1160AB
:101E100006EBC501087104F5847000EBC50000797C
:101E200006EBC501C87004F5847000EBC50080881E
:101E3000000A06EBC501887004F5847000EBC5004C
:101E40004068000C06EBC501487004F5847000EB97
:101E5000C5004068000E06F835006D1C082DAFDB8C
:101E6000BDE8F0872DE9F05F04468A4615466068B4
:101E7000C0F1800B5D4501D2284600E05846074678
:101E800004F10801626850183A46514611F034FADC
:101E900060682844802804D2606828446060BDE8F7
:101EA000F09FA5EB07084FEAD8160AEB07090122B5
:101EB00004F108012046FFF73CFD32464946204622
:101EC000FFF737FD08F07F0709EBC6113A4604F12A
:101ED000080011F011FA6760701C216801EBC01056
:101EE000206000BFDBE710B5014600200BE0F64A9A
:101EF00002EBC002D2E9003201F5847404EBC004A5
:101F0000C4E90032401C0828F1DB00224A600A6064
:101F100010BD70B5D2B004460D4616466846FFF7B0
:101F2000E2FF2A4621466846FFF79CFF3146684695
:101F3000FFF704FF52B070BD2DE9F04704460E468E
:101F4000207900F07F006F2801D9012000E00020F7
:101F500000F10109D4E9000108444FEAC0084FEA42
:101F6000C9176268B91A134604F10802981811F0EB
:101F7000DCF9802104F1080062688154384400F8DB
:101F8000018C4FEA182104F10800384400F8021CC3
:101F90004FEA184104F10800384400F8031C4FEAE6
:101FA000186104F10800384400F8041C4A4604F1A2
:101FB00008012046FFF7BDFC00254DE004F58470C4
:101FC00010F8350006EBC501C87104F5847000EB0C
:101FD000C50001880079020642EA112006EBC5011E
:101FE000887104F5847000EBC50001680079020473
:101FF00042EA114006EBC501487104F5847000EB1C
:10200000C50001680079020242EA116006EBC501D1
:10201000087104F5847000EBC500007906EBC5017A
:10202000C87004F5847000EBC5008088000A06EBD8
:10203000C501887004F5847000EBC5004068000C91
:1020400006EBC501487004F5847000EBC5004068DC
:10205000000E06F835006D1C062DAFDBBDE8F087DD
:102060002DE9F05F04468A4615466068C0F1800B92
:102070005D4501D2284600E05846074604F10801B4
:10208000626850183A46514611F036F960682844A3
:10209000802804D2606828446060BDE8F09FA5EB0A
:1020A00007084FEAD8160AEB0709012204F10801D4
:1020B0002046FFF73EFC324649462046FFF739FCF2
:1020C00008F07F0709EBC6113A4604F1080011F049
:1020D00013F96760701C216801EBC010206000BF1D
:1020E000DBE710B5014600200BE0784A02EBC002A6
:1020F000D2E9003201F5847404EBC004C4E9003273
:10210000401C0828F1DB00224A600A6010BD70B54F
:10211000D2B004460D4616466846FFF7E2FF2A464F
:1021200021466846FFF79CFF31466846FFF704FFEB
:1021300052B070BD2DE9F04704460F46207900F0FB
:102140003F00372801D9012000E0002000F10109FB
:10215000D4E9000108444FEAC0084FEA89166268D2
:10216000B11A134604F10802981811F0DEF8802124
:1021700004F1080062688154304400F8018C4FEA91
:10218000182104F10800304400F8021C4FEA1841FD
:1021900004F10800304400F8031C4FEA186104F110
:1021A0000800304400F8041C4A4604F108012046A7
:1021B000FFF7CAF900251EE004F1880010F8250099
:1021C00007EB8501C87004F1880030F82500000A8B
:1021D00007EB8501887004F1880050F82500000C99
:1021E00007EB8501487004F1880050F82500000EC7
:1021F00007F825006D1C072DDEDBBDE8F0872DE913
:10220000F05F04468A4615466068C0F1400B5D45A4
:1022100001D2284600E05846074604F108016268EA
:1022200050183A46514611F067F860682844402833
:1022300004D2606828446060BDE8F09FA5EB070801
:102240004FEA98160AEB0709012204F1080120461B
:10225000FFF77AF9324649462046FFF775F908F04C
:102260003F0709EB86113A4604F1080011F044F8E3
:102270006760701C216801EB8010206000BFDBE705
:102280000146002007E0124A52F8203001F188028E
:1022900042F82030401C0828F5DB00224A600A6022
:1022A000704770B5AAB004460D4616466846FFF75B
:1022B000E7FF2A4621466846FFF7A1FF31466846F8
:1022C000FFF738FF2AB070BDD8000020980000202A
:1022D0005800002001460806000C40EA1120704713
:1022E0000146080601F47F4240EA022001F47F0221
:1022F00040EA122040EA11607047F0B502460B46F2
:10230000140600214FF47F401040094344EA0020A6
:102310004FF47F0502EA050600252C0644EA162440
:1023200041EA066120434FF07F4502EA0506002599
:102330002C0244EA1664054641EA062045EA0401F7
:10234000DDB22E0634462E0A0D4640EA040145EA67
:1023500006004FF47F4603EA06052E02314340EAA9
:1023600015604FF47F041C40250A044641EA05002D
:1023700021464FF07F441C4040EA1460F0BD704796
:1023800070477047704770477047F0B502460B467C
:10239000140600214FF47F401040094344EA002016
:1023A0004FF47F0502EA050600252C0644EA1624B0
:1023B00041EA066120434FF07F4502EA0506002509
:1023C0002C0244EA1664054641EA062045EA040167
:1023D000DDB22E0634462E0A0D4640EA040145EAD7
:1023E00006004FF47F4603EA06052E02314340EA19
:1023F00015604FF47F041C40250A044641EA05009D
:1024000021464FF07F441C4040EA1460F0BD014675
:10241000080601F47F4240EA022001F47F0240EA0C
:10242000122040EA1160704701460806000C40EA9D
:1024300011207047F0B502460B46140600214FF4F8
:102440007F401040094344EA00204FF47F0502EA30
:10245000050600252C0644EA162441EA06612043BD
:102460004FF07F4502EA050600252C0244EA166477
:10247000054641EA062045EA0401DDB22E0634464F
:102480002E0A0D4640EA040145EA06004FF47F4655
:1024900003EA06052E02314340EA15604FF47F043B
:1024A0001C40250A044641EA050021464FF07F44BE
:1024B0001C4040EA1460F0BD0146080601F47F426A
:1024C00040EA022001F47F0240EA122040EA116053
:1024D000704701460806000C40EA1120704702468A
:1024E0000B46002104E0505C08B100207047491CF5
:1024F0009942F8D30120F9E70146B1F1004F01D329
:10250000012070470020FCE70246FE48824202D0CC
:10251000FD48824201D101207047012907D1FB48C3
:10252000824202D0FA48824201D10120F4E7002021
:10253000F2E70146F348814202D0F448814201D1DA
:10254000012070470020FCE7014691F83F0008B9E0
:10255000012070470020FCE710B50446012084F8F4
:102560003F00202104F1400000F0B1FC10BD10B587
:102570000446212304F17F02202104F140000EF0E3
:10258000BAFE10BD10B50446142304F164022121E3
:1025900004F17F0000F05DFD10BD10B5044614B9D4
:1025A0006FF0010010BD204600F08AFC0020F9E722
:1025B0000146402903D0202901D0102901D1012052
:1025C00070470020FCE72DE9F04192B005460E4629
:1025D00017469846189C65B13046FFF7E9FF40B1B1
:1025E00000213846FFF790FF18B128F0020000B92B
:1025F00024B96FF0010012B0BDE8F081A02120469F
:1026000000F065FCA7672B460C22C24902A8009681
:1026100000F043FC002084F83F00202202A904F1CE
:10262000400010F069FE2046FFF7A1FF40B1A02353
:102630002246402102A800F09BFD6FF00100DAE77E
:1026400020220AA9204610F057FE002084F834000A
:10265000206608F0020010B92046FFF793FF4021E2
:1026600002A800F034FC0020C5E72DE9F843064637
:102670000F4690469946089C1CB96FF00100BDE8D2
:10268000F883A02000F032FD2060206810B96FF0C0
:102690000200F4E7A021206800F019FC20684B46F6
:1026A0004246394600903046FFF78DFF054625B17A
:1026B000206800F005FC002020602846DFE770B5A8
:1026C00004460E4615462A463146204610F014FEB2
:1026D000601970BD2DE9F04104462046FFF734FF34
:1026E000054694F8340008B9012000E000200646B1
:1026F00085F001073946A06FFFF706FF10B90020EB
:10270000BDE8F08120212046FFF7E9FE68B994F882
:102710007F00022803D094F87F00032805D12021F0
:1027200004F18000FFF7DBFE08B10020E8E794F831
:102730003F00012804D094F83F0008B10020DFE7F3
:102740003DB1202104F14000FFF7C9FE08B100208F
:10275000D6E716B10DB90020D2E73EB1142104F13D
:102760002000FFF7BCFE08B90020C9E70120C7E739
:102770002DE9F84F04460E4617469A4606F001002A
:1027800080F00108B94626F0010018B16FF0010091
:10279000BDE8F88F74B1B8F1000F03D02046FFF701
:1027A000D3FE38B12046FFF795FF18B117B1BAF143
:1027B0004E0F02D06FF00100EAE7A56FB8F1000FED
:1027C00008D15048854201D1504D03E04E48854222
:1027D00000D14F4D2846FFF71AFE009004226946AB
:1027E0004846FFF76CFF814694F8340009F8010B66
:1027F000042204F120014846FFF761FF8146206E64
:10280000FFF705FE0090042269464846FFF757FF90
:102810008146202221464846FFF751FF8146B8F104
:10282000000F06D0212204F13F014846FFF747FF81
:1028300005E0212204F17F014846FFF740FF002018
:10284000A6E770B506460C4615462A462146304690
:1028500010F052FD601970BD10B50446A02120464D
:1028600000F035FB6FF0010010BD70B505460E4657
:10287000144615B14E2E00D114B96FF0010070BD91
:10288000A021204600F023FB0422294604F1780011
:10289000FFF7D7FF0546A06FFFF70EFEA0670121E7
:1028A000A06FFFF731FE18B92046FFF7D5FFE6E726
:1028B0000122294604F13400FFF7C3FF0546042234
:1028C000294604F12000FFF7BCFF054604222946F3
:1028D00004F16000FFF7B5FF0546206EFFF7ECFD41
:1028E0002066202229462046FFF7ABFF05462878C0
:1028F00020BB0649A06F884203D00549A06F8842DB
:102900000ED109E0E4AD8804948335041EB2880436
:10291000CF873504A83B01002046FFF79DFFAEE7B7
:102920002122294604F13F00FFF78BFF2046FFF7E5
:102930001EFEC0B12046FFF78FFFA0E7F849A06F49
:10294000884203D0F749A06F884203D12046FFF7A1
:1029500083FF94E72122294604F17F00FFF771FFEE
:102960002046FFF7F9FD2046FFF70CFE002086E722
:102970002DE9F04106460F4614461CB96FF00100E0
:10298000BDE8F081A02000F0B1FB2060206810B904
:102990006FF00200F4E7A021206800F098FA3946B1
:1029A00030462268FFF761FF054625B1206800F038
:1029B00087FA002020602846E2E72DE9F047A2B020
:1029C0000546884616461C462DB12846FFF7BCFD35
:1029D00008B1012000E00020824606F0010080F0EE
:1029E00001094046FFF788FD074626F0030020B1A5
:1029F0006FF0010022B0BDE8F08705B114B96FF0A7
:102A00000100F7E7BAF1000F07D1B9F1000F00D1CB
:102A10001FB12046FFF720FFECE795F83400FF28B0
:102A200003D12046FFF718FFE4E73FB1212205F16B
:102A30003F0104F13F0010F05FFC06E0212205F1A8
:102A40007F0104F13F0010F057FC4046FFF7DFFC28
:102A50002066252004F13F0320222946009012A879
:102A600000F01BFA20221AA9204610F045FCBAF10A
:102A7000000F20D0212205F13F0104F13F0010F0AA
:102A80003BFC12A904F140000EF0C6FB38B940210E
:102A900012A800F01CFA2046FFF7DEFEAAE7204647
:102AA000FFF765FD50B3402112A800F010FA204650
:102AB000FFF7D2FE9EE721200190212205F17F0140
:102AC00002A80EF085FA80B112A902A80EF0CCFB84
:102AD00058B14FF4817302AA01A904F17F000EF0EE
:102AE00092FA10B10198212807D0402112A800F0D5
:102AF000EEF92046FFF7B0FE7CE700BFB9F1000F0A
:102B000009D0A86FFFF715FD10B18548A0670EE04A
:102B10008448A0670BE0A86FFFF70BFD10B1824857
:102B2000A06701E08148A0672046FFF715FD95F8F2
:102B30003400401C84F83400C4F8608006F00200C1
:102B400040B1142304F16402194604F1200000F09E
:102B50000FFB09E0142205F1640104F1200010F0DC
:102B6000CBFB2046FFF70EFD402112A800F0AFF985
:102B700000203FE72DE9F04106460F4690461C46EF
:102B80001CB96FF00100BDE8F081A02000F0AEFAA2
:102B90002060206810B96FF00200F4E7A0212068DF
:102BA00000F095F94246394630462368FFF705FFA5
:102BB000054625B1206800F083F9002020602846F2
:102BC000E1E72DE9F04FD3B08046894615461E4611
:102BD000DDF870A146F0020052900020019026F02E
:102BE000030020B16FF0010053B0BDE8F08FB8F1E1
:102BF000000F06D0B9F1000F03D015B1BAF1000FE4
:102C000002D16FF00100EFE700241BE0019800EB18
:102C1000800002A901EB401BA01CA84200D35296E1
:102C200059F824105B464046529AFFF7C6FE074605
:102C300007B109E0D846019808B9012000E000205A
:102C40000190641CAC42E1D300BF27B9A0224146E9
:102C5000504610F051FB4FF4A07102A800F037F974
:102C60003846C1E72DE9F84306460F469046994697
:102C7000089C1CB96FF00100BDE8F883A02000F0AB
:102C800035FA2060206810B96FF00200F4E7A02147
:102C9000206800F01CF920684B46424639460090F7
:102CA0003046FFF78EFF054625B1206800F008F991
:102CB000002020602846DFE72DE9FF4F81B006465F
:102CC0009A46DDE910B8DDF84C900F9F179D25B9A5
:102CD0006FF0010005B0BDE8F08F002028601148BA
:102CE0004042304450B1A0F23B4090B110490844FA
:102CF00018B1A0F23A40F0B90AE000BFB8F1000FF5
:102D000002D01298202802D06FF00100E2E712E012
:102D100000BF17B1BBF1210F0CD06FF00100D9E754
:102D2000E4AD8804948335041EB28804CF8735044B
:102D3000EBD9ACFF00BF00BFBAF1000F02D00E9874
:102D4000202802D06FF00100C4E7B8F1000F02D0D4
:102D5000129820281CD1B8F1000F01D11298B8B9EF
:102D600017B1BBF1210F13D117B9BBF1000F0FD170
:102D7000B9F1000F02D01498142809D1B9F1000F4D
:102D800001D1149820B9159828B11698142802D0AA
:102D90006FF001009EE715B96FF001009AE7A020DF
:102DA00000F0A4F92860286810B96FF0020091E7DC
:102DB000A021286800F08BF82C68A667029884F898
:102DC00034000398206620225146204610F094FAE1
:102DD000B8F1000F0CD02348864209D02248864221
:102DE00006D02022414604F1400010F085FA02E0AE
:102DF000012084F83F0037B12122394604F17F00D9
:102E000010F07AFA17E01948864202D01848864234
:102E100011D12046FFF7ABFB0090009850B1A021E4
:102E2000204600F054F8204600F04AF800202860C0
:102E300000984FE700BFB9F1000F06D014224946B1
:102E400004F1640010F058FA02E02046FFF79AFB04
:102E5000159828B1142204F12000159910F04CFAAD
:102E6000002037E71EB28804CF873504E4AD88041C
:102E7000948335042DE9FC4104460D4616461F4651
:102E8000DDF82080202043463A463146CDE9004017
:102E90002846FEF78BF9BDE8FC812DE9FC4104468C
:102EA0000D4616461F46DDF82080402043463A4630
:102EB0003146CDE900402846FEF7E4FABDE8FC8142
:102EC00010B50446F74841682046884710BD70B5E4
:102ED00004460D46F348294682682046904770BD57
:102EE00070B5044614B96FF0010070BD204610F0B3
:102EF00045FA054629462046FFF7E9FF2046FFF739
:102F0000DFFF0020F1E770B504460D4614B96FF0FD
:102F1000010070BD29462046FFF7D9FF0020F8E7E1
:102F20002DE9F04188B005460E4614461F4604F0D0
:102F30001F0008B9012000E00020804615B10CB147
:102F4000202F04D06FF0010008B0BDE8F081B8F187
:102F5000000F01D0214600E0694608463246294666
:102F6000FEF7D4FCB8F1000F08D1202269462046B4
:102F700010F0C2F920216846FFF7A9FF0020E3E71F
:102F80002DE9F04190B005460E4614461F4604F068
:102F90001F0008B9012000E00020804615B10CB1E7
:102FA000202F04D06FF0010010B0BDE8F081324650
:102FB000294608A8FEF7AAFCB8F1000F01D0214667
:102FC00000E069460846202208A9FEF79FFCB8F1F8
:102FD000000F08D120226946204610F08DF92021EB
:102FE0006846FFF774FF202108A8FFF770FF002054
:102FF000DAE72DE9F04190B005460E4614461F462B
:1030000004F03F0008B9012000E00020804615B11F
:103010000CB1402F04D06FF0010010B0BDE8F0817A
:10302000B8F1000F01D0214600E06946084632465B
:103030002946FEF76EFFB8F1000F08D1402269461D
:10304000204610F059F940216846FFF740FF002064
:10305000E3E72DE9F0418EB00546884614461E464A
:103060001420B4FBF0F100FB114008B9012000E08E
:103070000020074615B10CB1142E04D06FF00100EA
:103080000EB0BDE8F08106AA41462846FEF73EFC98
:103090000FB1214600E001A90846202206A901F04F
:1030A000B7FC47B9142201A9204610F025F91421D4
:1030B00001A8FFF70CFF202106A8FFF708FF00205A
:1030C000DEE770B504460D462946204610F02DF97E
:1030D00070BD10B50446204610F0D0FA10BD10B5F2
:1030E000044614B1204610F09BFA10BD10B50446FA
:1030F0006C4801682046884710BD70B504462046DC
:1031000010F03CF9451C2846FFF7F0FF064626B1B3
:103110002A462146304610F0EFF8304670BD61482F
:10312000704710B5014611B96FF0010010BD5D4C3C
:103130001DCC81E81D000020F8E7014611B96FF0B1
:1031400001007047086810B1564A08681060486866
:1031500010B1544A48685060886810B1514A886874
:103160009060C86810B14F4AC868D0600020E8E796
:103170002DE9F04106460F4614461D46494839469A
:1031800082683046904747482946826820469047E3
:10319000BDE8F0812DE9F04706460F4614461D466E
:1031A000DDE908893F4839468268304690473D4806
:1031B00029468268204690473A48494682684046F8
:1031C0009047BDE8F0872DE9F05F06460F461446AC
:1031D0001D46DDE90CABDDE90A89324839468268D3
:1031E000304690472F4829468268204690472D4810
:1031F00049468268404690472A4859468268504668
:103200009047BDE8F09F2DE9F05F06460F46144653
:103210001D46DDE90CABDDE90A89224839468268A2
:10322000304690471F4829468268204690471D48EF
:1032300049468268404690471A4859468268504637
:10324000904718488268DDE90E019047BDE8F09F7D
:103250002DE9F05F06460F4614461D46DDE90CAB2E
:10326000DDE90A890F4839468268304690470D48A3
:1032700029468268204690470A4849468268404667
:1032800090470848594682685046904705488268EA
:10329000DDE90E01904703488268DDE9100190479F
:1032A000BDE8F09F98040020014611B16FF00100C5
:1032B00070470748007810B90120054A10700020B7
:1032C000F6E7014611B16FF0010070470020FCE7FE
:1032D000A804002001460806000C40EA11207047AF
:1032E0000146080601F47F4240EA022001F47F0211
:1032F00040EA122040EA11607047F0B502460B46E2
:10330000140600214FF47F401040094344EA002096
:103310004FF47F0502EA050600252C0644EA162430
:1033200041EA066120434FF07F4502EA0506002589
:103330002C0244EA1664054641EA062045EA0401E7
:10334000DDB22E0634462E0A0D4640EA040145EA57
:1033500006004FF47F4603EA06052E02314340EA99
:1033600015604FF47F041C40250A044641EA05001D
:1033700021464FF07F441C4040EA1460F0BD704786
:1033800070477047704770477047F0B502460B466C
:10339000140600214FF47F401040094344EA002006
:1033A0004FF47F0502EA050600252C0644EA1624A0
:1033B00041EA066120434FF07F4502EA05060025F9
:1033C0002C0244EA1664054641EA062045EA040157
:1033D000DDB22E0634462E0A0D4640EA040145EAC7
:1033E00006004FF47F4603EA06052E02314340EA09
:1033F00015604FF47F041C40250A044641EA05008D
:1034000021464FF07F441C4040EA1460F0BD014665
:10341000080601F47F4240EA022001F47F0240EAFC
:10342000122040EA1160704701460806000C40EA8D
:1034300011207047F0B502460B46140600214FF4E8
:103440007F401040094344EA00204FF47F0502EA20
:10345000050600252C0644EA162441EA06612043AD
:103460004FF07F4502EA050600252C0244EA166467
:10347000054641EA062045EA0401DDB22E0634463F
:103480002E0A0D4640EA040145EA06004FF47F4645
:1034900003EA06052E02314340EA15604FF47F042B
:1034A0001C40250A044641EA050021464FF07F44AE
:1034B0001C4040EA1460F0BD0146080601F47F425A
:1034C00040EA022001F47F0240EA122040EA116043
:1034D000704701460806000C40EA112070474FF083
:1034E000FF328261C26170477047034683EA010080
:1034F0005040704710B5034603EA010022EA030476
:10350000204310BD10B5034663EA0100504010BDD2
:1035100010B5034603EA020021EA0204204310BD6D
:1035200010B5034661EA0200584010BDFE49016033
:10353000FE494160FC49C9438160FC49C943C160FF
:10354000FB4901617047024602FA01F0C1F1200314
:1035500022FA03F3184370472DE9F05F04468B46C7
:1035600015460AAE96E8C00721683944414401EB8C
:1035700009005146FFF7E7FF304420600A21286820
:10358000FFF7E1FF2860BDE8F09F2DE9F04F85B01F
:1035900007460C4615461E46DDE90F9ADDF83880D1
:1035A000324620462968FFF7A0FF834600203346B5
:1035B0002A462146CDE901B9CDE9030ACDF80080BC
:1035C0003846FFF7C9FF05B0BDE8F08F2DE9F04F91
:1035D00085B007460C4615461E46DDE90F9ADDF814
:1035E0003880324620462968FFF784FF8346D14859
:1035F00033462A462146CDE901B9CDE9030ACDF883
:1036000000803846FFF7A8FF05B0BDE8F08F2DE930
:10361000F04F85B007460C4615461E46DDE90F9A69
:10362000DDF83880324620462968FFF76BFF834675
:10363000C14833462A462146CDE901B9CDE9030AFE
:10364000CDF800803846FFF787FF05B0BDE8F08F62
:103650002DE9F04F85B007460C4615461E46DDE9BC
:103660000F9ADDF83880324620462968FFF750FF70
:103670008346B24833462A462146CDE901B9CDE911
:10368000030ACDF800803846FFF766FF05B0BDE8B5
:10369000F08F2DE9F04F85B007460C4615461E46C3
:1036A000DDE90F9ADDF83880324620462968FFF7B9
:1036B00037FF8346A24833462A462146CDE901B961
:1036C000CDE9030ACDF800803846FFF745FF05B085
:1036D000BDE8F08F2DE9F04F85B007460C46154642
:1036E0001E46DDE90F9ADDF838803246204629680B
:1036F000FFF716FF8346934833462A462146CDE915
:1037000001B9CDE9030ACDF800803846FFF724FF60
:1037100005B0BDE8F08F2DE9F04F85B007460C46A7
:1037200015461E46DDE90F9ADDF838803246204600
:103730002968FFF7EDFE8346834833462A46214633
:10374000CDE901B9CDE9030ACDF800803846FFF78D
:1037500003FF05B0BDE8F08F2DE9F04F85B00746B7
:103760000C4615461E46DDE90F9ADDF838803246D4
:1037700020462968FFF7C6FE8346744833462A462A
:103780002146CDE901B9CDE9030ACDF800803846DC
:10379000FFF7E2FE05B0BDE8F08F2DE9F04F85B0F0
:1037A00007460C4615461E46DDE90F9ADDF83880BF
:1037B000324620462968FFF79DFE8346644833461B
:1037C0002A462146CDE901B9CDE9030ACDF80080AA
:1037D0003846FFF7C1FE05B0BDE8F08F2DE9F04F88
:1037E00085B007460C4615461E46DDE90F9ADDF802
:1037F0003880324620462968FFF777FE834600204E
:1038000033462A462146CDE901B9CDE9030ACDF870
:1038100000803846FFF7A0FE05B0BDE8F08F03B585
:103820009FB01F9800681E901F9840681D901F98B9
:1038300080681C901F98C0681B901F9800691A90A0
:103840001E9819901D9818901C9817901B98169008
:103850001A981590209800680390FFF794FD149033
:10386000209840680390FFF78EFD139020988068A1
:103870000390FFF788FD12902098C0680390FFF72F
:1038800082FD1190209800690390FFF77CFD109055
:10389000209840690390FFF776FD0F90209880698B
:1038A0000390FFF770FD0E902098C0690390FFF71A
:1038B0006AFD0D902098006A0390FFF764FD0C905C
:1038C0002098406A0390FFF75EFD0B902098806A75
:1038D0000390FFF758FD0A902098C06A0390FFF705
:1038E00052FD09902098006B0390FFF74CFD089063
:1038F0002098406B0390FFF746FD07902098806B5F
:103900000390FFF740FD06902098C06B0390FFF7EF
:103910003AFD05900B21149A1A98CDE901210090E7
:103920001CAA1EA81B9B15E00123456789ABCDEFA0
:10393000F0E1D2C39979825AA1EBD96EDCBC1B8F1E
:103940004EFD53A9E68BA25024D14D5CF33E706D21
:10395000E9766D7A1D99FFF718FE08210F9A1598E0
:10396000CDE90121009017AA19A8169B1899FFF715
:10397000B1FE0E21139A1B98CDE9012100901DAADA
:103980001AA81C9B1E99FFF700FE0921069A16989B
:10399000CDE90121009018AA15A8179B1999FFF7E6
:1039A00099FE0F21129A1C98CDE9012100901EAAC0
:1039B0001BA81D9B1A99FFF7E8FD09210D9A17987E
:1039C000CDE90121009019AA16A8189B1599FFF7B7
:1039D00081FE0C21119A1D98CDE9012100901AAAAF
:1039E0001CA81E9B1B99FFF7D0FD0B21149A189859
:1039F000CDE90121009015AA17A8199B1699FFF788
:103A000069FE0521109A1E98CDE9012100901BAA9C
:103A10001DA81A9B1C99FFF7B8FD0D210B9A199848
:103A2000CDE90121009016AA18A8159B1799FFF758
:103A300051FE08210F9A1A98CDE9012100901CAA85
:103A40001EA81B9B1D99FFF7A0FD0F21129A159828
:103A5000CDE90121009017AA19A8169B1899FFF724
:103A600039FE07210E9A1B98CDE9012100901DAA6D
:103A70001AA81C9B1E99FFF788FD0F21099A16981A
:103A8000CDE90121009018AA15A8179B1999FFF7F5
:103A900021FE09210D9A1C98CDE9012100901EAA52
:103AA0001BA81D9B1A99FFF770FD0521109A179806
:103AB000CDE90121009019AA16A8189B1599FFF7C6
:103AC00009FE0B210C9A1D98CDE9012100901AAA3C
:103AD0001CA81E9B1B99FFF758FD0721079A1898F1
:103AE000CDE90121009015AA17A8199B1699FFF797
:103AF000F1FD0D210B9A1E98CDE9012100901BAA22
:103B00001DA81A9B1C99FFF740FD07210E9A1998D2
:103B1000CDE90121009016AA18A8159B1799FFF767
:103B2000D9FD0E210A9A1A98CDE9012100901CAA0C
:103B30001EA81B9B1D99FFF728FD0821059A1598C3
:103B4000CDE90121009017AA19A8169B1899FFF733
:103B5000C1FD0F21099A1B98CDE9012100901DAAF2
:103B60001AA81C9B1E99FFF710FD0B210C9A1698A2
:103B7000CDE90121009018AA15A8179B1999FFF704
:103B8000A9FD0621089A1C98CDE9012100901EAAE2
:103B90001BA81D9B1A99FFF7F8FC0E21139A179882
:103BA000CDE90121009019AA16A8189B1599FFF7D5
:103BB00091FD0721079A1D98CDE9012100901AAACD
:103BC0001CA81E9B1B99FFF7E0FC0E210A9A18986F
:103BD000CDE90121009015AA17A8199B1699FFF7A6
:103BE00079FD0921069A1E98CDE9012100901BAAB2
:103BF0001DA81A9B1C99FFF7C8FC0C21119A199853
:103C0000CDE90121009016AA18A8159B1799FFF776
:103C100061FD0821059A1A98CDE9012100901CAA9E
:103C20001EA81B9B1D99FFF7B0FC0621089A15984A
:103C3000CDE90121009017AA19A8169B1899FFF742
:103C400049FD07210D9A1B98CDE9012100901DAA7D
:103C50001AA81C9B1E99FFF7B9FC09210E9A169809
:103C6000CDE90121009018AA15A8179B1999FFF713
:103C700052FD0621109A1C98CDE9012100901EAA40
:103C80001BA81D9B1A99FFF7A1FC0D21099A1798F3
:103C9000CDE90121009019AA16A8189B1599FFF7E4
:103CA0003AFD0821079A1D98CDE9012100901AAA32
:103CB0001CA81E9B1B99FFF789FC0F21119A1898CD
:103CC000CDE90121009015AA17A8199B1699FFF7B5
:103CD00022FD0D21139A1E98CDE9012100901BAA07
:103CE0001DA81A9B1C99FFF771FC07210D9A1998C2
:103CF000CDE90121009016AA18A8159B1799FFF786
:103D00000AFD0B210A9A1A98CDE9012100901CAAFC
:103D10001EA81B9B1D99FFF759FC0C21DDE91420FF
:103D2000CDE90121009017AA19A8169B1899FFF751
:103D3000F2FC09210E9A1B98CDE9012100901DAAE1
:103D40001AA81C9B1E99FFF741FC0821079A169898
:103D5000CDE90121009018AA15A8179B1999FFF722
:103D6000DAFC0721059A1C98CDE9012100901EAAD2
:103D70001BA81D9B1A99FFF729FC09210F9A179878
:103D8000CDE90121009019AA16A8189B1599FFF7F3
:103D9000C2FC0F21119A1D98CDE9012100901AAAA9
:103DA0001CA81E9B1B99FFF711FC0B210A9A18985F
:103DB000CDE90121009015AA17A8199B1699FFF7C4
:103DC000AAFC0721089A1E98CDE9012100901BAAA0
:103DD0001DA81A9B1C99FFF7F9FB0721069A199851
:103DE000CDE90121009016AA18A8159B1799FFF795
:103DF00092FC0C21149A1A98CDE9012100901CAA7A
:103E00001EA81B9B1D99FFF7E1FB0721059A15983A
:103E1000CDE90121009017AA19A8169B1899FFF760
:103E20007AFC0F210B9A1B98CDE9012100901DAA65
:103E30001AA81C9B1E99FFF7C9FB0C210C9A169817
:103E4000CDE90121009018AA15A8179B1999FFF731
:103E500062FC09210F9A1C98CDE9012100901EAA4D
:103E60001BA81D9B1A99FFF7B1FB0721089A179809
:103E7000CDE90121009019AA16A8189B1599FFF702
:103E80004AFC0B21129A1D98CDE9012100901AAA33
:103E90001CA81E9B1B99FFF799FB0621109A1898E6
:103EA000CDE90121009015AA17A8199B1699FFF7D3
:103EB00032FC0721069A1E98CDE9012100901BAA29
:103EC0001DA81A9B1C99FFF781FB0F210B9A1998CB
:103ED000CDE90121009016AA18A8159B1799FFF7A4
:103EE0001AFC0D21099A1A98CDE9012100901CAA0B
:103EF0001EA81B9B1D99FFF769FB0D21139A1598AE
:103F0000CDE90121009017AA19A8169B1899FFF76F
:103F100002FC0C210C9A1B98CDE9012100901DAAEE
:103F20001AA81C9B1E99FFF751FB0B21129A169899
:103F3000CDE90121009018AA15A8179B1999FFF740
:103F4000EAFB0B21119A1C98CDE9012100901EAAD1
:103F50001BA81D9B1A99FFF75AFB0921059A179870
:103F6000CDE90121009019AA16A8189B1599FFF711
:103F7000F3FB0D210A9A1D98CDE9012100901AAAA0
:103F80001CA81E9B1B99FFF742FB07210F9A18984C
:103F9000CDE90121009015AA17A8199B1699FFF7E2
:103FA000DBFB0621069A1E98CDE9012100901BAA91
:103FB0001DA81A9B1C99FFF72AFB0F21139A199829
:103FC000CDE90121009016AA18A8159B1799FFF7B3
:103FD000C3FB0721109A1A98CDE9012100901CAA71
:103FE0001EA81B9B1D99FFF712FB0B21119A159818
:103FF000CDE90121009017AA19A8169B1899FFF77F
:10400000ABFB0E210B9A1B98CDE9012100901DAA54
:104010001AA81C9B1E99FFF7FAFA08210D9A169808
:10402000CDE90121009018AA15A8179B1999FFF74F
:1040300093FB0921059A1C98CDE9012100901EAA45
:104040001BA81D9B1A99FFF7E2FA0621069A1798FA
:10405000CDE90121009019AA16A8189B1599FFF720
:104060007BFB0D210C9A1D98CDE9012100901AAA25
:104070001CA81E9B1B99FFF7CAFA06210E9A1898D6
:10408000CDE90121009015AA17A8199B1699FFF7F1
:1040900063FB0F21139A1E98CDE9012100901BAA02
:1040A0001DA81A9B1C99FFF7B2FA0E210B9A1998BA
:1040B000CDE90121009016AA18A8159B1799FFF7C2
:1040C0004BFB0E21129A1A98CDE9012100901CAAEF
:1040D0001EA81B9B1D99FFF79AFA0C21099A1598A7
:1040E000CDE90121009017AA19A8169B1899FFF78E
:1040F00033FB08210D9A1B98CDE9012100901DAAE0
:104100001AA81C9B1E99FFF782FA0D210C9A16988B
:10411000CDE90121009018AA15A8179B1999FFF75E
:104120001BFB0D21149A1C98CDE9012100901EAAB9
:104130001BA81D9B1A99FFF76AFA0521089A179880
:10414000CDE90121009019AA16A8189B1599FFF72F
:1041500003FB06210E9A1D98CDE9012100901AAAB1
:104160001CA81E9B1B99FFF752FA0E21129A189851
:10417000CDE90121009015AA17A8199B1699FFF700
:10418000EBFA0521079A1E98CDE9012100901BAAA0
:104190001DA81A9B1C99FFF73AFA0D210A9A199843
:1041A000CDE90121009016AA18A8159B1799FFF7D1
:1041B000D3FA0C21099A1A98CDE9012100901CAA82
:1041C0001EA81B9B1D99FFF722FA0D21DDE9142083
:1041D000CDE90121009017AA19A8169B1899FFF79D
:1041E000BBFA07210F9A1B98CDE9012100901DAA67
:1041F0001AA81C9B1E99FFF70AFA0721109A169815
:10420000CDE90121009018AA15A8179B1999FFF76D
:10421000A3FA0521089A1C98CDE9012100901EAA55
:104220001BA81D9B1A99FFF7F2F90521079A179809
:10423000CDE90121009019AA16A8189B1599FFF73E
:104240008BFA0B21139A1D98CDE9012100901AAA2F
:104250001CA81E9B1B99FFF7FBF90F210C9A1898BD
:10426000CDE90121009015AA17A8199B1699FFF70F
:1042700094FA0C210B9A1E98CDE9012100901BAAFB
:104280001DA81A9B1C99FFF7E3F905210E9A1998AE
:10429000CDE90121009016AA18A8159B1799FFF7E0
:1042A0007CFA0E21099A1A98CDE9012100901CAAE6
:1042B0001EA81B9B1D99FFF7CBF90821109A159892
:1042C000CDE90121009017AA19A8169B1899FFF7AC
:1042D00064FA0F210A9A1B98CDE9012100901DAACA
:1042E0001AA81C9B1E99FFF7B3F90B21139A169875
:1042F000CDE90121009018AA15A8179B1999FFF77D
:104300004CFA0E21149A1C98CDE9012100901EAAA6
:104310001BA81D9B1A99FFF79BF90E21119A17985C
:10432000CDE90121009019AA16A8189B1599FFF74D
:1043300034FA0F210C9A1D98CDE9012100901AAA98
:104340001CA81E9B1B99FFF783F90E21099A189848
:10435000CDE90121009015AA17A8199B1699FFF71E
:104360001CFA0921089A1E98CDE9012100901BAA88
:104370001DA81A9B1C99FFF76BF90621059A19983D
:10438000CDE90121009016AA18A8159B1799FFF7EF
:1043900004FA0821109A1A98CDE9012100901CAA6C
:1043A0001EA81B9B1D99FFF753F90E21DDE9142070
:1043B000CDE90121009017AA19A8169B1899FFF7BB
:1043C000ECF90921079A1B98CDE9012100901DAA5B
:1043D0001AA81C9B1E99FFF73BF906210F9A169805
:1043E000CDE90121009018AA15A8179B1999FFF78C
:1043F000D4F90E21119A1C98CDE9012100901EAA32
:104400001BA81D9B1A99FFF723F90921089A1798F1
:10441000CDE90121009019AA16A8189B1599FFF75C
:10442000BCF905210D9A1D98CDE9012100901AAA29
:104430001CA81E9B1B99FFF70BF90C21129A1898C8
:10444000CDE90121009015AA17A8199B1699FFF72D
:10445000A4F90621059A1E98CDE9012100901BAA16
:104460001DA81A9B1C99FFF7F3F80921079A1998C0
:10447000CDE90121009016AA18A8159B1799FFF7FE
:104480008CF90821069A1A98CDE9012100901CAAFE
:104490001EA81B9B1D99FFF7DBF80C210B9A1598A2
:1044A000CDE90121009017AA19A8169B1899FFF7CA
:1044B00074F906210F9A1B98CDE9012100901DAADD
:1044C0001AA81C9B1E99FFF7C3F805210D9A169890
:1044D000CDE90121009018AA15A8179B1999FFF79B
:1044E0005CF905210E9A1C98CDE9012100901EAAC5
:1044F0001BA81D9B1A99FFF7ABF80F210A9A179872
:10450000CDE90121009019AA16A8189B1599FFF76B
:1045100044F90C21129A1D98CDE9012100901AAAA4
:104520001CA81E9B1B99FFF793F80821069A189860
:10453000CDE90121009015AA17A8199B1699FFF73C
:104540002CF90921109A1E98CDE9012100901BAA8F
:104550001DA81A9B1C99FFF79CF80821089A199826
:10456000CDE90121009016AA18A8159B1799FFF70D
:1045700035F90F21149A1A98CDE9012100901CAA4F
:104580001EA81B9B1D99FFF784F80521059A159815
:10459000CDE90121009017AA19A8169B1899FFF7D9
:1045A0001DF905210F9A1B98CDE9012100901DAA44
:1045B0001AA81C9B1E99FFF76CF80C210A9A1698F2
:1045C000CDE90121009018AA15A8179B1999FFF7AA
:1045D00005F90B210B9A1C98CDE9012100901EAA28
:1045E0001BA81D9B1A99FFF754F80921109A1798D8
:1045F000CDE90121009019AA16A8189B1599FFF77B
:10460000EDF806210D9A1D98CDE9012100901AAA16
:104610001CA81E9B1B99FFF73CF80C21139A1898B5
:10462000CDE90121009015AA17A8199B1699FFF74B
:10463000D5F80821089A1E98CDE9012100901BAAFF
:104640001DA81A9B1C99FFF724F805210F9A1998A9
:10465000CDE90121009016AA18A8159B1799FFF71C
:10466000BDF80D21129A1A98CDE9012100901CAADB
:104670001EA81B9B1D99FFF70CF80E210C9A15988C
:10468000CDE90121009017AA19A8169B1899FFF7E8
:10469000A5F80C210A9A1B98CDE9012100901DAACA
:1046A0001AA81C9B1E99FEF7F4FF06210D9A169876
:1046B000CDE90121009018AA15A8179B1999FFF7B9
:1046C0008DF80521069A1C98CDE9012100901EAABB
:1046D0001BA81D9B1A99FEF7DCFF08210E9A17985C
:1046E000CDE90121009019AA16A8189B1599FFF78A
:1046F00075F80C21139A1D98CDE9012100901AAA92
:104700001CA81E9B1B99FEF7C4FF0D21129A189836
:10471000CDE90121009015AA17A8199B1699FFF75A
:104720005DF80D21119A1E98CDE9012100901BAA78
:104730001DA81A9B1C99FEF7ACFF0621079A199831
:10474000CDE90121009016AA18A8159B1799FFF72B
:1047500045F80E210C9A1A98CDE9012100901CAA67
:104760001EA81B9B1D99FEF794FF0521069A15981C
:10477000CDE90121009017AA19A8169B1899FFF7F7
:104780002DF80B21099A1B98CDE9012100901DAA53
:104790001AA81C9B1E99FEF77CFF0F21149A1698ED
:1047A000CDE90121009018AA15A8179B1999FFF7C8
:1047B00015F808210E9A1C98CDE9012100901EAA37
:1047C0001BA81D9B1A99FEF764FF0D21119A1798DB
:1047D000CDE90121009019AA16A8189B1599FEF79A
:1047E000FDFF0521059A1D98CDE9012100901AAA27
:1047F0001CA81E9B1B99FEF74CFF0B210B9A1898C7
:10480000CDE90121009015AA17A8199B1699FEF76A
:10481000E5FF0621079A1E98CDE9012100901BAA09
:104820001DA81A9B1C99FEF734FF0B21099A1998B1
:10483000CDE90121009016AA18A8159B1799FEF73B
:10484000CDFF1F98006804901F9840681C99084489
:10485000169901441F9801601F9880681B990844AD
:10486000159901441F9841601F98C0681A9908441F
:10487000199901441F9881601F9800691E99084486
:10488000189901441F98C1601D990498084417990C
:1048900001441F98016121B000BD2DE9F047044695
:1048A0008A461546D14640220023D4E9067138468F
:1048B0000EF0DCFC1646701940281CD3C6F14002ED
:1048C00004F12001881949460EF016FDC6F1400199
:1048D000D4E90630591840F10000C4E90610C6F1C9
:1048E00040008144C6F140002D1A04F12001204609
:1048F000FEF795FF00261CE009F0030020B94946A9
:104900002046FEF78CFF0AE04022494604F12000D1
:104910000EF0F2FC04F120012046FEF780FFD4E9FE
:104920000620403240F10000C4E9062009F14009A8
:10493000403D402DE0D26DB104F1200188192A4696
:1049400049460EF0D9FCD4E90620521940F1000086
:10495000C4E90620BDE8F08710B598B0044660228F
:10496000714968460EF0C8FC6022694620460EF088
:10497000C3FC18B010BD70B504460D46164620465F
:10498000FEF7B2FD324629462046FFF786FF70BD8E
:104990002DE9FC5F04468A46D4E90610C00040EACF
:1049A0005173CA0010461946FEF7E9FCCDE9000133
:1049B00040220023D4E9067138460EF057FC00204F
:1049C000D2F1770560EB03014022034628460EF042
:1049D0004DFC12F1010B5A4654492046FFF75DFF8A
:1049E000082269462046FFF758FF4FF0000907E00C
:1049F00054F82900FEF7C4FC4AF8290009F101091E
:104A0000B9F1050FF4D32046FEF769FDBDE8FC9F20
:104A100070B598B004460D4616466846FFF79CFFF1
:104A2000324629466846FFF7A6FF21466846FFF74B
:104A3000AFFF60216846FEF74AFA18B070BD13B5A3
:104A40000446012201A92046FFF795FF1CBD13B5BE
:104A50000446022201A92046FFF78DFF1CBD13B5B5
:104A60000446042201A92046FFF785FF1CBD1FB59F
:104A70000446082202A92046FFF77DFF1FBD38B576
:104A800005460C462046FEF77CFC00900222694653
:104A90002846FFF770FF38BD38B505460C4620465E
:104AA000FEF76EFC0090042269462846FFF763FF7C
:104AB00038BD7CB5064614461D4620462946FEF7FD
:104AC0005EFCCDE90001082269463046FFF753FF3E
:104AD0007CBD38B505460C462046FEF7A5FC009087
:104AE000022269462846FFF746FF38BD38B505461D
:104AF0000C462046FEF78BFC0090042269462846AF
:104B0000FFF739FF38BD7CB5064614461D462046E2
:104B10002946FEF73AFCCDE90001082269463046F5
:104B2000FFF729FF7CBD0000B83B0100183C0100E5
:104B300070B504460D462846D4E90021904770BD63
:104B400070B506460C4620460EF098FD05461DB988
:104B5000FCA13046FFF7ECFF284670BD2DE9F04F71
:104B6000044615461E464FF0000C6346B5EB0C0C90
:104B700076EB030301DA012300E0002318464FF02F
:104B8000FF3910EB090149EBE0726FEA01076FEAA8
:104B90000208C4E90056D4E900C30CEA010C03EA98
:104BA0000203D4E9009A6FEA09096FEA0A0A4FF092
:104BB000010E19EB0E094AF1000A09EA07090AEA8F
:104BC000080A4CEA090C43EA0A03C4E900C3BDE839
:104BD000F08F70B502460B46002482EA04005C4068
:104BE000204301D1402070BD002102E092185B41BA
:104BF000491C4FF00040002418402546644068409E
:104C00000443F3D00846EEE72DE9FC4F0368416802
:104C10008268C468056946698769D0F81CC0D0F805
:104C20002080D0F824904FEA995ACDF800A0C9F31B
:104C3000150940F2D13BDDF800A00AFB0B33DDF88B
:104C400000A001EB8A1101EB936123F07C4302EB9E
:104C5000916221F07C4104EB926422F07C4201924B
:104C600005EB946524F07C44019A02EA040ACDF82D
:104C700004A006EB956625F07C45DDF804A00AEA61
:104C8000050ACDF804A007EB966726F07C46DDF810
:104C900004A00AEA060ACDF804A00CEB976C27F0F2
:104CA0007C47DDF804A00AEA070ACDF804A008EB67
:104CB0009C682CF07C4CDDF804A00AEA0C0ACDF8C4
:104CC00004A009EB986928F07C48DDF804A00AEA02
:104CD000080ACDF804A000BF00BFDFF878A2D145D4
:104CE00002D14FF0010A01E04FF0000A6FF07C4E54
:104CF000DDF804B0F34502D14FF0010B01E04FF0B5
:104D0000000B0AEA0B0A01F1400B03F2D13E0BEB58
:104D10009E6BBBF1806F02D34FF0010B01E04FF0AF
:104D2000000B0AEA0B0A4AEA995ACDF800A040F2B1
:104D3000D13BDDF800A00AFB0B33DDF800A001EB4E
:104D40008A1101EB936123F07C4302EB916221F025
:104D50007C4104EB926422F07C4205EB946524F0E4
:104D60007C4406EB956625F07C4507EB966726F0BC
:104D70007C460CEB976C27F07C4708EB9C682CF08A
:104D80007C4C09EB986928F07C4800BF00BFC9F350
:104D90001509036041608260C460056146618761F6
:104DA000C0F81CC0C0F82080C0F82490BDE8FC8F7B
:104DB0002DE9F04F026841688368C4680569466957
:104DC0008769D0F81CC0D0F82080D0F824904FEA32
:104DD000995AC9F3150940F2D13B0BFB0A2201EBAA
:104DE0008A1101EB926122F07C4203EB916321F086
:104DF0007C4104EB936423F07C4305EB946524F041
:104E00007C4406EB956625F07C4507EB966726F01B
:104E10007C460CEB976C27F07C4708EB9C682CF0E9
:104E20007C4C09EB986928F07C4800BF00BF026009
:104E300041608360C460056146618761C0F81CC041
:104E4000C0F82080C0F82490BDE8F08F2DE9FC4F19
:104E5000036841688268C468056946698769D0F853
:104E60001CC0D0F82080D0F824904FEA995ACDF891
:104E700000A0C9F3150940F2D13BDDF800A00AFB00
:104E80000B33DDF800A001EB8A1101EB936123F0F5
:104E90007C4302EB916221F07C4104EB926422F0AE
:104EA0007C42019205EB946524F07C44019A02EA6D
:104EB000040ACDF804A006EB956625F07C45DDF8E4
:104EC00004A00AEA050ACDF804A007EB966726F0CD
:104ED0007C46DDF804A00AEA060ACDF804A00CEB33
:104EE000976C27F07C47DDF804A00AEA070ACDF8A2
:104EF00004A008EB9C682CF07C4CDDF804A00AEAC6
:104F00000C0ACDF804A009EB986928F07C48DDF87C
:104F100004A00AEA080ACDF804A000BF00BFDFF829
:104F200034A0D14502D14FF0010A01E04FF0000A50
:104F30006FF07C4EDDF804B0F3450DD14FF0010B5E
:104F40000CE000004F7574206F66206D656D6F7208
:104F500079000000FFFF3F004FF0000B0AEA0B0A48
:104F600001F1400B03F2D13E0BEB9E6BBBF1806F66
:104F700002D34FF0010B01E04FF0000B0AEA0B0ADD
:104F80004AEA995ACDF800A0DDF800A0BAF1000F66
:104F90002DD003F2D133DDF800A001EB8A1101EB33
:104FA000936123F07C4302EB916221F07C4104EB9E
:104FB000926422F07C4205EB946524F07C4406EB7D
:104FC000956625F07C4507EB966726F07C460CEB52
:104FD000976C27F07C4708EB9C682CF07C4C09EB25
:104FE000986928F07C4800BF00BFC9F31509036029
:104FF00041608260C460056146618761C0F81CC081
:10500000C0F82080C0F82490BDE8FC8F2DE9FC4F4B
:1050100001460C684D688E68CF68D1F810C0D1F891
:105020001480D1F81890D1F81CA0D1F820B0486AAB
:1050300001900198800D00900198C0F31500019037
:1050400040F2D13E009800FB0E44009805EB80151D
:1050500005EB946524F07C44224684F4747306EBDB
:10506000956625F07C452A4385F04000034007EB18
:10507000966726F07C46324333400CEB976C27F062
:105080007C473A433B4008EB9C682CF07C4C42EA5E
:105090000C0203EA0C0309EB986928F07C4842EA09
:1050A000080203EA08030AEB996A29F07C4942EAFC
:1050B000090203EA09030BEB9A6B2AF07C4A42EAE5
:1050C0000A0203EA0A03019800EB9B6001902BF0AF
:1050D0007C4B42EA0B0203EA0B030198024301985E
:1050E00080F07070034000BF00BF0AB9012000E0EB
:1050F00000206FF07C4E734502D14FF0010E01E0AD
:105100004FF0000E40EA0E00BDE8FC8F2DE9FC4F89
:10511000024610680190D2F824B04FEA9B500090EC
:1051200040F2D13E009800FB0EF0DDF804E0704440
:105130000190019820F07C4181F4747309B1012041
:1051400000E000206FF07C4E734502D04FF0010E5E
:1051500001E04FF0000E00EA0E0010B10020BDE8A3
:10516000FC8F54689568D6681769D2F814C0D2F8D5
:105170001880D2F81C90D2F820A0CBF3150B009821
:1051800004EB8014019804EB906405EB946524F023
:105190007C44214384F04000034006EB956625F0F3
:1051A0007C4529432B4007EB966726F07C4631432C
:1051B00033400CEB976C27F07C4739433B4008EBBE
:1051C0009C682CF07C4C41EA0C0103EA0C0309EBCF
:1051D000986928F07C4841EA080103EA08030AEBD1
:1051E000996A29F07C4941EA090103EA09030BEBBA
:1051F0009A6B2AF07C4A41EA0A0103EA0A0341EA6F
:105200000B018BF07070034000BF00BF09B9012093
:1052100000E000206FF07C4E734502D14FF0010E8C
:1052200001E04FF0000E40EA0E0098E70160002216
:1052300042620262C261826142610261C260826056
:105240004260704701460A46D2E90003184393685A
:105250001843D36818431369184353691843936973
:105260001843D3691843136A1843536A184308B99B
:10527000012070470020FCE70146087800F001009B
:1052800070470146002003E0002241F82020401C26
:105290000A28F9DB704710B502460B46092111E0D8
:1052A00052F8210053F82140A04201D9012010BD3D
:1052B00052F8210053F82140A04202D24FF0FF30B3
:1052C000F5E7491E0029EBDA0020F0E7F0B50246C9
:1052D0000B4600201061D0609060506010605062FA
:1052E0001062D06190615061002122E000201DE039
:1052F000CE00022707FB00661A2796FBF7F4CE00C4
:10530000022707FB00661A2796FBF7FC07FB1C65C4
:10531000C1F11F069E5D47003E4106F00306AE4008
:1053200052F824703E4342F82460401C0428DFDB1E
:10533000491C2029DADBFE4C506AA0421CD1D2E97C
:10534000074020409469204054692040146920405F
:10535000D4682040946820406FF07C44A0420BD178
:1053600050684030146804F2D13400EB9460B0F11E
:10537000806F01D30020F0BD0120FCE72DE9F04152
:1053800002460B46002027E0002400211EE0C70053
:105390004FF0020C0CFB01774FF01A0C97FBFCF559
:1053A000C7004FF0020C0CFB01774FF01A0C97FB73
:1053B000FCF80CFB187653F82570F74007F003074C
:1053C0004FEA410C07FA0CF73C43491C0429DEDB89
:1053D000C0F11F069455401C2028D5DBBDE8F081A4
:1053E00010B5531CD34C63430C681B1B0360531C48
:1053F00003EB8314C4EB83634C68C4EB4303436047
:10540000531CC3EB83638C68C4EB43038360531C5E
:10541000C3EB8363CC68C4EB4303C360531CC3EB8F
:1054200083630C69C4EB43030361531CC3EB8363C5
:105430004C69C4EB43034361531CC3EB83638C6926
:10544000C4EB43038361531CC3EB8363CC69C4EB9C
:105450004303C361531CC3EB83630C6AC4EB430374
:105460000362531CC3EB83534C6AC4EB4303436294
:1054700010BD02684A43026042684A434260826843
:105480004A438260C2684A43C26002694A43026179
:1054900042694A43426182694A438261C2694A431E
:1054A000C261026A4A430262426A4A4342627047E8
:1054B00002680B681A44026042684B681A444260F2
:1054C00082688B681A448260C268CB681A44C260E2
:1054D00002690B691A44026142694B691A444261CC
:1054E00082698B691A448261C269CB691A44C261BC
:1054F000026A0B6A1A440262426A4B6A1A444262A6
:1055000070472DE9F04F9EB06FF07C48CDF80880D1
:1055100043F61058CDF804804FF48068CDF8008031
:1055200000BF00BF00BF00BF00BF00BF00BF00BF83
:1055300000BF00BF00BF00BF00BF00BF00BF00BF73
:1055400000BF00BF00BF00BF00BF00BF00BF00BF63
:1055500000BF00BF00BF00BF00BF00BF00BF00BF53
:1055600000BF00BF00BF00BF00BF00BF00BF00BF43
:10557000D1F800C0D2F82480ACFB088CD1F804909C
:10558000D2F820A0A9FB0A9A18EB09084CEB0A0CE8
:10559000D1F80890D2F81CA0A9FB0A9A18EB0908C8
:1055A0004CEB0A0CD1F80C90D2F818A0A9FB0AA970
:1055B00018EB0A084CEB090CD1F81090D2F814A0A3
:1055C000A9FB0A9A18EB09084CEB0A0CD1F81490C5
:1055D000D2F810A0A9FB0A9A18EB09084CEB0A0CA8
:1055E000D1F81890D2F80CA0A9FB0AA918EB0A0868
:1055F0004CEB090CD1F81C90D2F808A0A9FB0A9A30
:1056000018EB09084CEB0A0CD1F82090D2F804A052
:10561000A9FB0AA918EB0A084CEB090CD1F8249055
:10562000D2F800A0A9FB0AA918EB0A054CEB090661
:105630006FF07C4C05EA0C074FEA956C4CEA861536
:10564000B60E00BF00BF00BF00BFD1F800C0D2F847
:105650000080ACFB083400BF00BFD1F804C0D2F812
:105660002480ACFB088CD1F80890D2F820A0A9FBCC
:105670000A9A18EB09084CEB0A0CD1F80C90D2F8F6
:105680001CA0A9FB0AA918EB0A084CEB090CD1F8DD
:105690001090D2F818A0A9FB0A9A18EB09084CEB55
:1056A0000A0CD1F81490D2F814A0A9FB0A9A18EBAE
:1056B00009084CEB0A0CD1F81890D2F810A0A9FBFD
:1056C0000A9A18EB09084CEB0A0CD1F81C90D2F896
:1056D0000CA0A9FB0A9A18EB09084CEB0A0CD1F8AC
:1056E0002090D2F808A0A9FB0A9A18EB09084CEB05
:1056F0000A0CD1F82490D2F804A0A9FB0A9A18EB5E
:1057000009084CEB0A0C18EB05054CEB060600BF2C
:1057100000BF6FF07C4A05EA0A084FF0000CCDE9A3
:105720001B8C4FEA956C4CEA8615B60E04E000001F
:10573000FFFF3F005EF8FF0743F6105A4FF0000BE3
:10574000DDE91B8CA8FB0A9E0CFB0AEC08FB0BCCCA
:1057500019EB03034CEB040400BF00BF00BF00BF04
:1057600000BF00BF6FF07C4803EA080CCDF824C0EE
:105770004FEA936C4CEA8413A40E4FF4806ADDE97F
:105780001B8CA8FB0A9E0CFB0AEC08FB0BCC19EB4C
:1057900003034CEB040400BF00BF00BF00BFD1F8FF
:1057A00000C0D2F80480ACFB088CD1F80490D2F889
:1057B00000A0A9FB0A9A18EB09084CEB0A0C18EB9D
:1057C00003034CEB040400BF00BFD1F808C0D2F8BB
:1057D0002480ACFB089CD1F80C80D2F820A0A8FB58
:1057E0000AA8C34619EB0A084CEB0B0CD1F8109031
:1057F000D2F81CA0A9FB0AA918EB0A084CEB090C6B
:10580000D1F81490D2F818A0A9FB0A9A18EB09084D
:105810004CEB0A0CD1F81890D2F814A0A9FB0A9A04
:1058200018EB09084CEB0A0CD1F81C90D2F810A028
:10583000A9FB0AA918EB0A084CEB090CD1F8209037
:10584000D2F80CA0A9FB0A9A18EB09084CEB0A0C39
:10585000D1F82490D2F808A0A9FB0A9A18EB0908FD
:105860004CEB0A0C18EB05054CEB060600BF00BF1D
:105870006FF07C4A05EA0A084FF0000CCDE9198C5C
:105880004FEA956C4CEA8615B60E43F6105A4FF067
:10589000000BDDE9198CA8FB0A9E0CFB0AEC08FB47
:1058A0000BCC19EB03034CEB040400BF00BF00BF9B
:1058B00000BF00BF00BF6FF07C4803EA080CCDF8C2
:1058C00028C04FEA936C4CEA8413A40E4FF4806A0C
:1058D000DDE9198CA8FB0A9E0CFB0AEC08FB0BCC3B
:1058E00019EB03034CEB040400BF00BF00BF00BF73
:1058F000D1F800C0D2F80880ACFB089CD1F8048035
:10590000D2F804A0A8FB0AA8C34619EB0A084CEB7E
:105910000B0CD1F80890D2F800A0A9FB0A9A18EB5A
:1059200009084CEB0A0C18EB03034CEB040400BF12
:1059300000BFD1F80CC0D2F82480ACFB088CD1F8A1
:105940001090D2F820A0A9FB0AA918EB0A084CEB8A
:10595000090CD1F81490D2F81CA0A9FB0AA918EBE5
:105960000A084CEB090CD1F81890D2F818A0A9FB42
:105970000A9A18EB09084CEB0A0CD1F81C90D2F8E3
:1059800014A0A9FB0A9A18EB09084CEB0A0CD1F8F1
:105990002090D2F810A0A9FB0A9A18EB09084CEB4A
:1059A0000A0CD1F82490D2F80CA0A9FB0A9A18EBA3
:1059B00009084CEB0A0C18EB05054CEB060600BF7A
:1059C00000BF6FF07C4A05EA0A084FF0000CCDE9F1
:1059D000178C4FEA956C4CEA8615B60E43F6105AB2
:1059E0004FF0000BDDE9178CA8FB0A9E0CFB0AECBC
:1059F00008FB0BCC19EB03034CEB040400BF00BF06
:105A000000BF00BF00BF00BF6FF07C4803EA080C76
:105A1000CDF820C04FEA936C4CEA8413A40E4FF4E7
:105A2000806ADDE9178CA8FB0A9E0CFB0AEC08FBD8
:105A30000BCC19EB03034CEB040400BF00BF00BF09
:105A400000BFD1F800C0D2F80C80ACFB08B9D1F887
:105A50000480D2F808A0A8FB0A8A1BEB080849EBCF
:105A60000A0CD1F80890D2F804A0A9FB0AA918EBF7
:105A70000A084CEB090CD1F80C90D2F800A0A9FB55
:105A80000AA918EB0A084CEB090C18EB03034CEBC2
:105A9000040400BF00BFD1F810C0D2F82480ACFBD2
:105AA00008B8D1F81490D2F820A0A9FB0A9AC446ED
:105AB0001BEB09084CEB0A0CD1F81890D2F81CA08B
:105AC000A9FB0AA918EB0A084CEB090CD1F81C90A9
:105AD000D2F818A0A9FB0AA918EB0A084CEB090C8C
